:100000000C9434000C943E000C943E000C943E0082
:100010000C943E000C943E000C943E000C943E0068
:100020000C943E000C943E000C943E000C943E0058
:100030000C943E000C943E000C943E000C943E0048
:100040000C943E000C943E000C943E000C943E0038
:100050000C943E000C943E000C943E000C943E0028
:100060000C943E000C943E0011241FBECFEFD8E04C
:10007000DEBFCDBF0E9440000C945A000C940000DB
:100080001AB88CE18BB983E084B999B129B189B1EF
:1000900023FB222720F982958170822B92FB9927DE
:1000A00090F9892395B1982B95B995B1880F892B33
:0800B00085B9EBCFF894FFCFF6
:00000001FF
